:020000040800F2
:10000000000F0020450100084106000839060008DD
:100010003D0600082F0200082D0C0008000000001B
:100020000000000000000000000000006908000857
:100030001905000800000000E30600087D0900081B
:100040005F0100085F0100085F0100085F01000810
:100050005F0100085F0100085F0100085F01000800
:100060005F0100085F0100085F0100085F010008F0
:100070005F0100085F0100085F0100085F010008E0
:100080005F0100085F0100085F0100085F010008D0
:100090005F0100085F0100085F0100085F010008C0
:1000A0005F0100085F0100085F0100085F010008B0
:1000B000E10900085F0100085F0100085F01000816
:1000C0005F0100085F0100085F0100085F01000890
:1000D0005F0100085F0100085F0100085F01000880
:1000E0005F0100085F0100085F0100085F01000870
:1000F0005F0100085F0100085F0100085F01000860
:100100005F0100085F0100085F0100085F0100084F
:100110005F0100085F0100085F0100085F0100083F
:100120005F0100085F0100085F0100085F0100082F
:10013000DFF80CD000F04AF800480047D91A000850
:10014000000F00200648804706480047FEE7FEE70C
:10015000FEE7FEE7FEE7FEE7FEE7FEE7FEE7FEE777
:1001600081090008310100082DE9F05F05460020F3
:1001700092469B4688460646814640241BE0284618
:1001800041464746224600F042F853465A46C01AB6
:10019000914110D311461846224600F029F82D1A35
:1001A00067EB01084F4622460120002100F020F8AD
:1001B00017EB00094E41201EA4F10104DFDC484684
:1001C00031462A464346BDE8F09F0000064C074DE5
:1001D00006E0E06840F0010394E807009847103417
:1001E000AC42F6D3FFF7A8FFD8420008F842000857
:1001F000202A04DB203A00FA02F1002070479140E7
:10020000C2F1200320FA03F3194390407047202ADB
:1002100004DB203A21FA02F00021704721FA02F3B0
:10022000D040C2F12002914008431946704700BFF8
:10023000FEE7000038B504460D4600200090062277
:100240002E494FF4106000F02DFD2C4800782B490A
:10025000497808432949897808432849C9780843D7
:1002600026490979084325494979084378B9002086
:100270002249087008204870DC2088700020C8706F
:100280000871487106224FF4106000F08BFD1C4885
:1002900004701C4805601C481C4908601748C07859
:1002A0000968084419490860144800790968084435
:1002B00016490860114840790968084413490860E4
:1002C0000E48C0780D49097948400C4949794840A1
:1002D0000E49096808440D490860042269464FF434
:1002E000706000F05FFD04226946900100F05AFD45
:1002F00002F076FB00200649087038BDD0000020CF
:1003000094000020C400002078563412C000002061
:10031000B100002070B569480078062801D1052099
:1003200070BD674909788900491C4FF4407202EB9F
:10033000C10000F07DFC222806D0002344220221C7
:100340005F48007803F062F9012501F0C1FEC4B2F4
:100350005A4890F90000052877D2DFE800F0030F33
:100360002C4F770000205749087048708870C8707B
:1003700002F006FD0120514908709CE0022C16D1C4
:1003800051480068007C4F4908704F480068407C25
:1003900048704D480068807C88704B480068C07C7D
:1003A000C87002F039FE02204449087002E000F0F3
:1003B000CBFF05467FE0052C14D100F089FF40B14A
:1003C00042480068804702F00BFB03203B4908705D
:1003D00013E002F005FB3E480068804700203749E3
:1003E00008700AE0062C05D102F0FAFA0120334920
:1003F000087002E000F0A8FF05465CE004253548DF
:100400000068401C00B33448006832490968B0EB0A
:10041000510F19D900242B48007830490870294819
:10042000407848702748807888702648C078C8701F
:100430002B480068401C2A49086002F0EDFD02F0DC
:10044000CFFA04201D49087035E033E00425052C5F
:1004500024D10020234908702048007819490978E0
:10046000884211D11D4840781649497888420BD1FD
:100470001A48807813498978884205D11748C0788E
:100480001049C978884203D003251748006880477F
:1004900002F0A6FA0320094908700AE0062C05D1EB
:1004A00002F09EFA01200549087002E000F04CFFBE
:1004B000054600E000BF00BF284631E7B10000203C
:1004C00094000020A1000020C4000020D8000020DB
:1004D000E0000020B4000020B80000209D000020B3
:1004E000C0000020B2000020DC00002010B504484D
:1004F000007800F07FFF06200249087010BD000060
:1005000094000020B100002002480068401C01490E
:1005100008607047B800002070472DE9F04102469E
:1005200000250026002000230024002791F803C0A6
:100530000CF00F0591F803C00CF0100CBCF1000F8B
:1005400003D091F802C04CEA050591F800C0BCF157
:10055000000F31D0146800202BE04FF0010C0CFA92
:1005600000F3B1F800C00CEA03069E4220D18300DC
:100570004FF00F0C0CFA03F7BC4305FA03FC4CEAEE
:10058000040491F803C0BCF1280F06D14FF0010C10
:100590000CFA00FCC2F814C00AE091F803C0BCF1E8
:1005A000480F05D14FF0010C0CFA00FCC2F810C046
:1005B000401C0828D1D31460B1F800C0BCF1FF0F73
:1005C00034DD546800202EE000F1080C4FF00108E3
:1005D00008FA0CF3B1F800C00CEA03069E4221D1E0
:1005E00083004FF00F0C0CFA03F7BC4305FA03FC31
:1005F0004CEA040491F803C0BCF1280F05D100F1C6
:10060000080C08FA0CF8C2F8148091F803C0BCF189
:10061000480F07D100F1080C4FF0010808FA0CF858
:10062000C2F81080401C0828CED35460BDE8F08189
:10063000416170470161704700BFFEE700BFFEE700
:100640007047000070B5002100230F22C47804B366
:10065000154C246804F4E064C4F5E064210AC1F197
:100660000403CA40447804FA03F184781440214317
:1006700009010E4C0678A155047804F01F050124E9
:10068000AC4005786D11AD0005F1E025C5F80041DD
:1006900009E0047804F01F050124AC40044D0678FD
:1006A000761145F8264070BD0CED00E000E400E056
:1006B00080E100E002490143024A116070470000F6
:1006C0000000FA050CED00E0014601F00F010929D8
:1006D00003DC01F13000C0B2704701F13700C0B255
:1006E000FAE7704729B1064AD2690243044BDA613E
:1006F00004E0034AD2698243014BDA61704700008B
:100700000010024029B1064A92690243044B9A61E3
:1007100004E0034A92698243014B9A6170470000EA
:100720000010024030B500210022002400232D4D8E
:100730006D6805F00C0121B1042905D0082923D1E9
:1007400005E0294D056022E0274D05601FE0254D9D
:100750006D6805F47012234D6D6805F48034022530
:1007600005EB92421CB9214D554305600BE01D4D30
:100770006D6805F400351DB11C4D5543056002E060
:10078000194D5543056002E0174D056000BF00BFDD
:10079000144D6D6805F0F0010909154D6B5C056895
:1007A000DD4045600F4D6D6805F4E061090A104DAC
:1007B0006B5C4568DD4085600A4D6D6805F46051ED
:1007C000C90A0B4D6B5C4568DD40C560054D6D6821
:1007D00005F44041890B074D6B5CC568B5FBF3F52B
:1007E000056130BD0010024000127A0000093D0092
:1007F000280000203800002021B1028842F0400289
:10080000028004E002884FF6BF731A4002807047EE
:100810000246002013890B400BB1012000E00020AC
:1008200070470146888970478181704710B5002262
:10083000028802F441520B884C8823438C8823435E
:10084000CC8823430C8923434C8923438C8923433D
:10085000CC8923431A430280838B4FF2FF742340D9
:1008600083830B8A038210BD704710B500F002F835
:1008700010BD00000CB500200190009033480068C6
:1008800040F480303149086000BF3048006800F40F
:10089000003000900198401C0190009818B9019810
:1008A000B0F5A06FF1D12948006800F4003010B114
:1008B0000120009001E0002000900098012843D121
:1008C0002348006840F0100021490860084600688D
:1008D00020F0070008600846006840F00200086049
:1008E0001A48406819494860084640684860084608
:1008F000406840F4806048600846406820F47C10FE
:1009000048600846406840F488104860084600681F
:1009100040F08070086000BF0C48006800F0007074
:100920000028F9D00948406820F0030007494860D2
:100930000846406840F00200486000BF0348406835
:1009400000F00C000828F9D10CBD00000010024096
:1009500000200240042808D14FF0E021096941F04D
:1009600004014FF0E022116107E04FF0E021096936
:1009700021F004014FF0E022116170477047000040
:1009800010B51348006840F001001149086008469E
:100990004068104908400E494860084600680E4902
:1009A00008400B4908600846006820F48020086071
:1009B0000846406820F4FE0048604FF41F0088603D
:1009C000FFF753FF4FF000600449086010BD0000BE
:1009D000001002400000FFF8FFFFF6FE08ED00E007
:1009E00010B50121880700F02BF8012812D10A4820
:1009F0000068401C0849086008460068B0F57A7F26
:100A000004D3FFF781FD0020034908600121880716
:100A100000F007F810BD000024000020CA43028245
:100A20007047CA430282704721B1028842F0010236
:100A3000028004E002884FF6FE731A40028070477D
:100A400030B50246002000230024158A05EA010380
:100A5000958905EA010413B10CB1012000E00020E2
:100A600030BD1AB183890B43838102E083898B43B4
:100A700083817047002202881D4B98420ED01D4B87
:100A800098420BD0B0F1804F08D01B4B984205D054
:100A90001A4B984202D01A4B984204D14FF68F73EA
:100AA0001A404B881A43174B984207D0164B98426E
:100AB00004D04FF6FF431A40CB881A4302808B883C
:100AC00083850B8803850A4B98420BD0094B9842CB
:100AD00008D00E4B984205D00D4B984202D00D4BDA
:100AE000984201D10B7A038601238382704700006C
:100AF000002C014000340140000400400008004088
:100B0000000C004000100040001400400040014074
:100B1000004401400048014021B1828942F4005262
:100B2000828104E082894DF6FF731A40828170470A
:100B300002460020B1F5007F00D100BF13880B40B2
:100B40000BB1012000E00020704700002DE9F047C4
:100B500086B005460E460024A24600BFA1460027E7
:100B6000B08900B100BF2F462C8A4CF6FF700440BC
:100B7000F08804432C82AC894EF6F3100440B08810
:100B800031890843718908430443AC81AC8A4FF62C
:100B9000FF400440B0890443AC8201A8FFF7C2FDC6
:100BA0001F48874202D1DDF810A001E0DDF80CA05B
:100BB000A88900F4004040B10AEBCA0000EB0A101B
:100BC00031684900B0FBF1F807E00AEBCA0000EB1E
:100BD0000A1031688900B0FBF1F86420B8FBF0F02E
:100BE00004012009642101FB1089A88900F4004058
:100BF00040B1322000EBC900B0FBF1F000F007007B
:100C0000044308E0322000EB09106421B0FBF1F04E
:100C100000F00F0004432C8106B0BDE8F08700000F
:100C200000380140C1F308028280704700BFFEE730
:100C300038B504461A49C868804719494869804749
:100C400000BF1748406A10B11548806A70B914484F
:100C5000016AC4F3074088471148016AC4F30720BA
:100C60008847E0B20E4A116A88470DE0200C8DF8E3
:100C70000000200A8DF80100E0B28DF8020008485B
:100C80000321826A684690470549C869804705463E
:100C9000034988698047024908698047284638BD6A
:100CA00060000020F8B504460E4617461F49C86884
:100CB00080471E494869804700BF1C48406A10B100
:100CC0001A48806AC0B91948016AC4F307408847C6
:100CD0001648016AC4F307208847E0B2134A116A34
:100CE0008847002505E01149C86980477055681C90
:100CF00085B2BD42F7DB12E0200C8DF80000200A1F
:100D00008DF80100E0B28DF8020008480321826AE4
:100D10006846904705483946426A3046904703493D
:100D200088698047014908698047F8BD6000002054
:100D300038B504460D461A49C868804718494869BD
:100D4000804744F004041648806A90B91448016A48
:100D5000C4F3074088471248016AC4F30720884754
:100D6000E0B20F4A116A88470D48016A2846884751
:100D70000FE0200C8DF80000200A8DF80100E0B291
:100D80008DF802008DF8035005480421826A6846F8
:100D9000904703498869804701490869804738BD01
:100DA00060000020F8B504460E4617461E49C86884
:100DB00080471D494869804744F004041A48806A06
:100DC000C0B91948016AC4F3074088471648016A48
:100DD000C4F307208847E0B2134A116A8847002508
:100DE00005E0705D104A116A8847681C85B2BD42F3
:100DF000F7DB12E0200C8DF80000200A8DF80100CE
:100E0000E0B28DF8020008480321826A68469047E4
:100E100005483946826A30469047034988698047C9
:100E2000014908698047F8BD600000200FB4054BF8
:100E300010B503A9044A029800F018F810BC5DF838
:100E400014FB000059190008E800002002E008C85F
:100E5000121F08C1002AFAD170477047002001E034
:100E600001C1121F002AFBD1704700002DE9FF4F7E
:100E70008DB00F460546002606E025280BD0DDE99B
:100E80000F1290476D1C761C28780028F5D111B000
:100E90003046BDE8F08F0024A246A1460122EC496D
:100EA00000E0044315F8013F203B02FA03F008423A
:100EB000F7D128782A2810D06FF02F022878A0F1D7
:100EC0003001092914D80AEB8A0102EB410144F0F0
:100ED000020400EB010A6D1CF0E701CF5FEA000A93
:100EE00003D544F40054CAF1000A44F002046D1C16
:100EF00028782E2817D115F8010F44F004042A2869
:100F00000ED06FF02F022878A0F1300109290AD8FD
:100F100009EB890102EB410100EB01096D1CF2E7CD
:100F200057F8049B6D1C28786C280FD006DC4C28E1
:100F300017D068280DD06A2814D104E0742810D086
:100F40007A280FD10DE044F400140AE044F4801430
:100F500001E044F440146978814202D104F5801420
:100F60006D1C6D1C2A786E2A1FD00CDC632A31D0D0
:100F700004DC002A8BD0582A11D1A3E0642A68D05F
:100F8000692A0CD165E0732A2ED004DC6F2A73D055
:100F9000702A04D19BE0752A6FD0782A6ED0104653
:100FA000DDE90F129047761C50E1C4F3025002288D
:100FB00006D0032809D0042801CF09D0066045E1F6
:100FC00001CFF117C0E9006140E101CF06803DE1AA
:100FD00006703BE117F8040B8DF8000000208DF837
:100FE0000100EB46012003E057F804BB4FF0FF304F
:100FF00061074FF0000102D40DE008F101018846BD
:1010000049450FDA8045F8DB1BF808100029F4D1B8
:1010100008E008F1010188468142FADB1BF808105C
:101020000029F6D1DDE90F23AAEB0800814621460D
:1010300000F036F9304400EB080604E0DDE90F1259
:101040001BF8010B9047B8F10108F7D2214648463A
:10105000F7E00A21C4F302534FF0000B0891022B72
:1010600004D001CFC117032B09D00AE0FF1D27F0E0
:101070000707F7E8020108E032E01FE020E000B2D5
:10108000C117042B01D140B2C117031E71F1000337
:1010900007DA4FF0000CD0EB0C006CEB01012D23B4
:1010A00002E0230504D52B238DF82430012303E02F
:1010B000E30701D02023F7E7984658E00A2110E023
:1010C00010210EE010204FF0000B08900CE01021D2
:1010D0004FF0000B44F004044FF00809089103E0BE
:1010E00008214FF0000B0891C4F30253022B04D0E7
:1010F00001CF0021032B06D006E0FF1D27F00707D4
:10110000F7E8020103E080B2042B00D1C0B24FF037
:10111000000823072BD5702A07D0DDF820C08CF0FB
:10112000100C5CEA0B0C05D00EE040238DF8243047
:10113000012308E050EA010306D030238DF8243063
:101140008DF8252002239846DDF820C08CF0080C8D
:101150005CEA0B0C0BD150EA010301D1630706D501
:1011600030238DF824304FF00108A9F10109582AE5
:1011700004D038A20B9208AA0A920BE03AA2F9E72F
:101180005B46089AFEF7F0FF0B9B9B5C0A9A521E87
:101190000A92137050EA0102F2D10A98ADEB0000F6
:1011A00000F1200B600702D524F4803401E04FF0F9
:1011B0000109D94502DDA9EB0B0000E0002000EB9E
:1011C0000B0141440890AAEB010AE00306D4DDE9D3
:1011D0000F232146504600F063F806444FF0000903
:1011E00008E009A911F80900DDE90F12904709F19B
:1011F0000109761CC145F4DBE0030CD5DDE90F23C2
:101200002146504600F04CF8064404E0DDE90F1298
:1012100030209047761C0899481E08900029F5DC7C
:1012200008E00A980A990078491C0A91DDE90F1232
:101230009047761CBBF10001ABF1010BF1DC2146BC
:101240005046DDE90F2300F019F806446D1C1BE63B
:10125000092801003031323334353637383961628C
:101260006364656600000000303132333435363750
:101270003839414243444546000000002DE9F04121
:10128000044600251E461746880404D405E0394666
:101290002020B0476D1C641EF9D52846BDE8F081BA
:1012A0002DE9F041044600251E469046C80301D5AD
:1012B000302700E02027880404D505E04146384661
:1012C000B0476D1C641EF9D52846BDE8F0810000CA
:1012D00038B54FF4D850FFF7ABFC054603214FF467
:1012E000D850FFF725FD41F288300F4B11220FA196
:1012F00000901348007802F083F8044629464FF422
:10130000D850FFF715FD04F10D0008B9012038BDD4
:1013100001F036FC0B48046800BF0A480068001B57
:101320000228FAD30020F2E7A100002043484543F9
:101330004B5F49505F434F4E464C494354000000B9
:1013400094000020B800002010B50124254890F931
:101350000000022829DA24480068244909688842E4
:101360003DD2234890F90000012804D0022805D07E
:10137000042809D105E001F003FD06E001F04CFE70
:1013800003E001F049FE00E000BF00BF0020174964
:101390000860084600680A30134908601148007860
:1013A000401C40B20F49087019E0114890F9000044
:1013B000012804D0022807D004280CD105E0002021
:1013C0000B490870002407E000BF01F0D9FC0120A0
:1013D0000749087000E000BF00BF01F001FB204694
:1013E00010BD0000B2000020BC000020B8000020AA
:1013F000B100002010B5044600BF082C02DD4FF0FC
:10140000FF3010BD00BFA100491C4FF4807202EBF9
:10141000C1001021FFF78CFC00BFA100491C4FF454
:10142000807202EBC100FFF703FC0028F5D1A10098
:10143000491C4FF4007202EBC1001F21FFF778FC3A
:101440000120A0400F49098881430E4801800120F6
:10145000A0400D49098881430B48018000200B49B9
:1014600021F814000A49085500BFA100491C4FF497
:10147000407202EBC100FFF7DBFB0028F5D1012031
:10148000BFE700005200002054000020EC080020BC
:101490005600002070B504460D46164600BF082CC5
:1014A00002DD4FF0FF3070BD00BF00BFA100491C3E
:1014B000002202EBC100FFF7BBFB00F00F00012888
:1014C00002D06FF00400EEE700BF00BFA100491C8E
:1014D0004FF4407202EBC100FFF7AAFB132802D0C1
:1014E0006FF00200DFE700BF2978687861F31F2002
:1014F0000146A87861F31F200146E87861F31F20B8
:101500000146481C00B111B96FF00B00CBE716B9CA
:101510006FF00A00C7E7A100491C4FF4406202EBDC
:10152000C10004222946FFF73DFC3112A200521CE3
:101530004FF4805303EBC200FFF7FAFBF1B2A200B5
:10154000521C4FF4805303EBC20202F58070FFF788
:10155000EFFBA100491C4FF4807202EBC100042193
:10156000FFF7E6FB00BFA100491C4FF4807202EBBD
:10157000C100FFF75DFB0028F5D10120A0401B4909
:101580000988084008B100208DE722E0A100491C2D
:101590004FF4007202EBC100FFF74AFB00F00800B5
:1015A00058B1A100491C4FF4007202EBC1000821A0
:1015B000FFF7BEFB6FF00C0075E7A100491C4FF46C
:1015C000407202EBC100FFF733FB10B96FF003006C
:1015D00069E7A100491C4FF4407202EBC100FFF71C
:1015E00027FB1728D2D101205DE700005200002020
:1015F0002DE9FC4106460C46002500200090019094
:10160000102E7CD2DFE806F0080B1A161E222632B6
:101610003F54575B5F60647002F077FC72E01CB16E
:101620000094009808300190DDE9000102F074FB9D
:10163000BDE8FC81208802F0EDFA63E002F014FBC3
:1016400020805FE0208802F005FC5BE002F021FBD7
:10165000208057E0208801124FF49850FFF768FB74
:1016600021784FF4A050FFF763FB4BE04FF4A050FC
:10167000FFF7DEFA07464FF49850FFF7D9FA07EB69
:10168000002020803EE02148807820701F48C078EC
:1016900060701E480079A0701C484079E0701B48BB
:1016A000807920711948C07960710020A07129E00B
:1016B00002F00DFD26E0204602F023FD22E0204648
:1016C00002F0AEFC1EE01DE0207802F046FDAFE720
:1016D00002F0EEFCC5B268B2401C18B94FF0FF3002
:1016E000A6E70CE025700DE002F0D6FCC5B268B2AA
:1016F000401C10B94FF0FF309AE7257002E04FF020
:10170000FF3095E700BF002092E700006000002056
:1017100000B585B0012144F20400FEF7F3FF4FF459
:101720000070ADF8100018208DF8130003208DF81C
:10173000120004A91348FEF7F0FE4FF48060ADF8E4
:10174000100004208DF8130004A90E48FEF7E5FEF2
:101750004FF4E13000900020ADF80400ADF8060031
:10176000ADF80800ADF80C000C20ADF80A00694691
:101770000548FFF7EBF901210348FFF7CDF905B064
:1017800000BD0000000801400038014010B50422EF
:1017900008494FF47060FFF705FB042206494FF437
:1017A000A060FFF7FFFA042204499001FFF7FAFA5C
:1017B00010BD0000A1000020A9000020A50000200D
:1017C00010B580210020FFF7B3FA0020FFF730FAB0
:1017D000062203494FF41060FFF7E4FA10BD000041
:1017E000D000002010B580210020FFF7A1FA0020D2
:1017F000FFF71EFAFFF7CAFF062203494FF41060F5
:10180000FFF7D0FA10BD0000D000002010B56FF037
:101810000400FFF79FF80A4800680A49B0FBF1F09E
:10182000094908700846007800EB4001C1EBC01080
:101830004FF6FF7101EAC0000449088010BD0000A6
:101840003C00002000127A0020000020220000202E
:101850000146114A12884A434FF0E0235A610022A0
:101860009A611A46126942F001021A6100BF4FF0F4
:10187000E022106900F001021AB100F48032002A5F
:10188000F5D04FF0E022126922F001024FF0E02380
:101890001A6100229A6170472200002010B50446A8
:1018A00000BF082C02DD4FF0FF3010BD00BF00BFAD
:1018B000A100491C002202EBC100FFF7B9F900F0BA
:1018C0000F00012802D06FF00400EEE700BFA10076
:1018D000491C4FF4807202EBC1000821FFF728FA7F
:1018E00000BFA100491C4FF4807202EBC100FFF75A
:1018F0009FF90028F5D10120A040154909888143AE
:10190000134801800120A04012490988084008B10D
:101910000020CAE710E0A100491C4FF4007202EB5E
:10192000C100FFF785F900F0080028B12046FFF755
:1019300061FD6FF00C00B8E7A100491C4FF4407244
:1019400002EBC100FFF774F90028E4D10120ACE7F5
:10195000540000205200002070B504460D46074890
:101960000088E1B20548FFF75DF900BF4021034858
:10197000FFF7DEF80028F9D0204670BD003801409E
:101980000649097801700549497841700349897809
:1019900081700249C978C17070470000AD00002015
:1019A00006490978017005494978417003498978E9
:1019B00081700249C978C17070470000A5000020FD
:1019C00006490978017005494978417003498978C9
:1019D00081700249C978C17070470000A1000020E1
:1019E00006490978017005494978417003498978A9
:1019F00081700249C978C17070470000A9000020B9
:101A000070B504460025002600BFA100491C4FF414
:101A1000185202EBC100FFF70BF90646A100491C62
:101A20004FF4185202EBC10101F58070FFF700F985
:101A300000EB062086B2AEB1A100491C4FF418524B
:101A400002EBC100FFF7F4F80546A100491C4FF472
:101A5000185202EBC10101F58070FFF7E9F800EBC5
:101A6000052085B2B542D0D1284670BD70B5044678
:101A70000025002600BFA100491C4FF4005202EBD4
:101A8000C100FFF7D5F80646A100491C4FF40052EB
:101A900002EBC10101F58070FFF7CAF800EB0620E8
:101AA00086B2AEB1A100491C4FF4005202EBC10056
:101AB000FFF7BEF80546A100491C4FF4005202EBA7
:101AC000C10101F58070FFF7B3F800EB052085B286
:101AD000B542D0D1284670BD1CB56426FFF796FEEE
:101AE000FFF716FE02F05AF802F00AF801F0A2FF22
:101AF0003CA0FFF79BF902F057F93F493F4800F03F
:101B0000CFFA062142F60870FFF712F969E04FF4A8
:101B10004270FFF78DF805464DB939A0FFF786F9F9
:101B200000231A460121184601F070FD55E0132DDF
:101B300013D13A4801883A48C078CDE900013848C5
:101B400083784278017837A0FFF770F9334802882C
:101B500033490020FFF79EFC3FE0172D35D14FF4AD
:101B60000270FFF765F800F0010038B101214FF471
:101B70000270FFF7DDF833A0FFF758F949F641434B
:101B8000264802882649002000F050F90446002C1F
:101B900003DB21462FA0FFF749F94FF4FA70FFF756
:101BA00057FE49F642431D48009602881C49002012
:101BB00000F0E4F931462CA0FFF738F9701C86B22A
:101BC0004FF47A70FFF744FE07E01C2D05D12BA0DF
:101BD000FFF72CF90020FFF761FE0120FFF738FE28
:101BE00000BF94E74D6F64627573205443502043E7
:101BF0006C69656E740D0A0000000020EC00002086
:101C0000536F636B657420436C6F7365642C204F56
:101C100070656E696E672E2E2E0D0A001C00002066
:101C200017000020436F6E6E656374696E672074E1
:101C30006F2025642E25642E25642E25643A2564A4
:101C40000D0A0000436F6E6E6563746564210D0AB2
:101C500000000000526561642034303030313A2099
:101C600025640D0A00000000577269746520343045
:101C70003030323A2025640D0A000000436C6F7347
:101C80006520576169742C20446973636F6E6E65BB
:101C90006374696E672E2E2E0D0A00007CB5062235
:101CA00069464FF41060FEF7FDFF01205C490968AA
:101CB00008705B49096848700620594909688870AE
:101CC000002057490968C87055480068051D5548E7
:101CD0000068000E287053480068000C6870514876
:101CE0000088000AA8704F480078E87000204C492E
:101CF000096808814A48006800F10A0580202870B8
:101D0000002068704649096808730021444800684B
:101D1000417343480068817341480068C1730020E3
:101D20003F490968087400213D48006841743C48F7
:101D3000006881743A480068C17400203849096815
:101D4000087500213648006841753548006881757E
:101D500033480068C17500203149096808760021C0
:101D60002F48006841762E48006881762C4800682C
:101D7000C1762D4800782A49096808772A484178B1
:101D8000274800684177284881782548006881778E
:101D90002548C17822480068C17723480179204846
:101DA000006880F82010204841791D48006880F8BC
:101DB0002110062406E00021194800681C30015556
:101DC000601CC4B2102CF6DB002406E0002114488D
:101DD00000682C300155601CC4B2402CF6DB002496
:101DE00006E000210E4800686C300155601CC4B24A
:101DF000802CF6DB63200A49096881F8EC00822117
:101E00000748006880F8ED1053210548006880F805
:101E1000EE1063210248006880F8EF107CBD0000DE
:101E2000C4000020C0000020D00000202DE9F047B1
:101E30000546884691461E46A6F51C40413887B2A5
:101E4000A900491C4FF4407202EBC100FEF7F0FEFE
:101E5000172821D0A900491C4FF4407202EBC100A1
:101E6000FEF7E6FE28B900231A460121284601F0B4
:101E7000CDFBA900491C4FF4407202EBC100FEF7F4
:101E8000D7FE132804D14A4641462846FFF702FBF5
:101E90004FF0FF30BDE8F0872A480088000A2A4941
:101EA000087028480078487000208870C870087151
:101EB00006204871012088710320C871380A087211
:101EC0004F72002088720120C8721E480088401C92
:101ED0001C4908800C221C49284600F091FD04464C
:101EE000002C05DC19A0FEF7A1FF4FF0FF30D1E771
:101EF0006420FFF7ADFC2846FFF782FD0446002C66
:101F00001CDDA2B21549284600F00CFB1348C0792D
:101F1000032806D11149897A104A527A41EA0220EF
:101F2000B8E70E48C07900F0800038B10B48017A5C
:101F30000BA0FEF77BFF4FF0FF30ABE74FF0FF3019
:101F4000A8E70000E4000020FC09002053656E644F
:101F5000206661696C65640D0A000000FC080020C1
:101F60004D6F6462757320457863657074696F6E38
:101F70003A203078253032580D0A00002DE9F0471C
:101F80000546894692461E46089FA6F51C404138E4
:101F90001FFA80F8A900491C4FF4407202EBC100FF
:101FA000FEF746FE172803D04FF0FF30BDE8F0875C
:101FB00029480088000A2949087027480078487095
:101FC00000208870C870087106204871012088714F
:101FD0000620C8714FEA1820087281F80980380A73
:101FE0008872CF721C480088401C1B4908800C2254
:101FF0001A49284600F004FD0446002C05DC18A010
:10200000FEF714FF4FF0FF30D0E76420FFF720FC0D
:102010002846FFF7F5FC0446002C1ADDA2B214494D
:10202000284600F07FFA1248C079062804D111A092
:10203000FEF7FCFE0020B9E70D48C07900F08000F3
:1020400038B10B48017A0FA0FEF7F0FE4FF0FF30D9
:10205000ACE74FF0FF30A9E7E4000020FC090020C6
:1020600053656E64206661696C65640D0A0000004A
:10207000FC080020577269746520537563636573AB
:10208000730D0A004D6F6462757320457863657047
:1020900074696F6E3A203078253032580D0A00008E
:1020A00070B506460C46204601F0E4FEA07D0228ED
:1020B0000AD13146002001F073FB054625B9012005
:1020C000A075204601F0D6FE00F044F970BD000076
:1020D0002DE9FF414FF0000895480078FFF790FC8C
:1020E000071E0BDD01A802AB3A460090914801683B
:1020F0008F48007800F0A6FA87B203E0002004B011
:10210000BDE8F081BDF8040043286CD1894800681F
:10211000007F89490978884224D186480068407F39
:102120008549497888421DD182480068807F82496C
:102130008978884216D17F480068C07F7E49C97877
:1021400088420FD17B48006890F820007A490979CD
:10215000884207D17748006890F82100764949798C
:10216000884201D00020CAE77448007840B973481B
:10217000407828B97148807810B97048C07888B321
:102180009DF808006D490978884211D19DF8090031
:102190006A49497888420BD19DF80A0067498978D5
:1021A000884205D19DF80B006449C97888421BD04C
:1021B0009DF8080062490978884211D19DF809000C
:1021C0005F49497888420BD19DF80A005C498978BB
:1021D000884205D19DF80B005949C978884203D03F
:1021E00000208CE700E0A0E052480468F034A7F13A
:1021F000F000051996E0207833284DD007DC70B147
:10220000012813D0032821D006287DD131E03528BC
:1022100007D0362860D0FF287ED12C4681E0641C90
:102220007FE0641C641C14F8018B7AE0641C641C5D
:1022300014F8010B4349087014F8010B487014F8A6
:10224000010B887014F8010BC8706AE0641C14F864
:10225000016B14F8010B3C49087014F8010B48702D
:1022600014F8010B887014F8010BC870301F044477
:1022700057E0641C14F8016B14F8010B3349087023
:1022800014F8010B487014F8010B887014F8010B56
:10229000C870301F044444E0641C14F8016B14F847
:1022A000010B2B49086014F8011B2948006801EB59
:1022B00000202749086014F8011B2548006801EB3D
:1022C00000202349086014F8011B2148006801EB35
:1022D00000201F49086024E0641C14F8016B14F806
:1022E000010B1649087014F8010B487014F8010B23
:1022F000887014F8010BC8709DF808001049087028
:102300009DF80900487000E006E09DF80A0088701A
:102310009DF80B00C87004E0641C14F8016B344491
:1023200000BF00BFAC42FFF466AF4FFA88F0E6E6AC
:1023300094000020C4000020D00000209500002060
:1023400099000020A9000020A5000020AD00002079
:10235000B400002000B589B003A801F0AFFC9DF8DF
:102360002200022807D12B48FEF760FD2AA12CA0ED
:10237000FEF75CFD06E02748FEF758FD26A132A0D7
:10238000FEF754FD9DF811109DF810009DF80F20E8
:10239000CDE9002002919DF80E309DF80D209DF8AA
:1023A0000C1033A0FEF742FD9DF8150000909DF83B
:1023B00014309DF813209DF8121039A0FEF736FD59
:1023C0009DF8190000909DF818309DF817209DF891
:1023D00016103BA0FEF72AFD9DF81D0000909DF809
:1023E0001C309DF81B209DF81A103DA0FEF71EFD25
:1023F00003A8407D009003A8037D9DF81F209DF851
:102400001E103FA0FEF712FD4548FEF70FFD09B074
:1024100000BD00002C420008573535303000000068
:10242000202573206E6574776F726B20636F6E6604
:10243000696775726174696F6E203A204448435031
:102440000D0A0D0A00000000202573206E657477C8
:102450006F726B20636F6E66696775726174696F06
:102460006E203A207374617469630D0A0D0A0000CE
:10247000204D41432020202020202020203A2025CC
:102480003032583A253032583A253032583A2530D1
:1024900032583A253032583A253032580D0A000069
:1024A000204950202020202020202020203A2025B4
:1024B000642E25642E25642E25640D0A000000007C
:1024C000205375626E6574204D61736B203A202530
:1024D000642E25642E25642E25640D0A000000005C
:1024E000204761746577617920202020203A2025DB
:1024F000642E25642E25642E25640D0A000000003C
:1025000020444E532020202020202020203A202527
:10251000642E25642E25642E25640D0A000000001B
:10252000C04100082DE9F0470446884616460027BA
:10253000002500BF082C02DD681EBDE8F08700BF43
:1025400000BFA100491C002202EBC100FEF770FB96
:1025500000F00F00012802D06FF00400EDE700BF8B
:1025600000BF16B96FF00D00E7E700BFA100491CDE
:102570004FF4F05202EBC100FEF75AFB4FF6FF7129
:1025800001EA8025B54200DA2E4638E02046FFF702
:1025900037FA0546A100491C4FF4407202EBC10016
:1025A000FEF746FB0746172F1ED01C2F16D105B18C
:1025B00026E02046FFF75AFA8146A100491C4FF455
:1025C000F85202EBC100FEF733FBB9EB802F0BD1C1
:1025D0002046FEF70FFF6FF00600AEE72046FEF73D
:1025E00009FF6FF00600A8E70120A0401449098800
:1025F000084010B10DB900209FE705B100E0C5E724
:1026000000BFB54200DA2E4632464146204601F070
:102610009BF9A100491C4FF4807202EBC1004021DC
:10262000FEF786FB00BFA100491C4FF4807202EB4D
:10263000C100FEF7FDFA0028F5D130467DE7000025
:10264000520000202DE9FC4704468A4616461D46E6
:10265000DDF82880002700BF082C02DD781EBDE8C9
:10266000FC8700BFA100491C002202EBC100FEF75D
:10267000DFFA814600F00F00022804D0032803D0BF
:10268000042803D101E000BF00BF02E06FF00400A6
:10269000E5E700BF00BF16B96FF00D00DFE700BF30
:1026A000A84830F81400E8B91AE02046FFF7A8F966
:1026B0000746A100491C4FF4407202EBC100FEF72F
:1026C000B7FA10B96FF00300C9E70120A0409E4996
:1026D0000988084010B10FB90020C0E707B100E039
:1026E000E3E700BF09F00700022804D003287CD0EC
:1026F00004287BD158E0934830F81400E8BB082246
:102700006946204601F020F9A100491C4FF480726F
:1027100002EBC1004021FEF70BFB00BFA100491CEA
:102720004FF4807202EBC100FEF782FA0028F5D167
:102730009DF8000028709DF8010068709DF8020067
:10274000A8709DF80300E8709DF80400A8F8000048
:102750009DF8050098F8001000EB0120A8F8000093
:102760009DF80600774921F814009DF8070011F83C
:10277000141000EB0120734900E004E021F814007C
:102780008020724908556F4830F81400B04201DDCE
:10279000374602E06B4830F814703E463A465146E0
:1027A000204601F0D1F8A1E0664830F81400B8BB2B
:1027B00002226946204601F0C7F8A100491C4FF4E7
:1027C000807202EBC1004021FEF7B2FA00BFA10007
:1027D000491C4FF4807202EBC100FEF729FA002871
:1027E000F5D19DF80000574901E02DE076E021F891
:1027F00014009DF8010011F8141000EB0120801E58
:10280000504921F81400084630F8140040F2EA510B
:10281000884206DD2046FEF7EDFD6FF47A701EE774
:1028200002E0802049490855464830F81400B0427B
:1028300001DD374602E0434830F814703A4651460D
:10284000204601F081F851E03E4830F81400A8BB62
:1028500006226946204601F077F8A100491C4FF492
:10286000807202EBC1004021FEF762FA00BFA100B6
:10287000491C4FF4807202EBC100FEF7D9F9002821
:10288000F5D19DF8000028709DF8010068709DF852
:102890000200A8709DF80300E8709DF80400294923
:1028A00021F814009DF8050011F8141000EB012028
:1028B000244921F81400802024490855214830F883
:1028C0001400B04201DD374602E01E4830F81470B3
:1028D0003A465146204601F037F807E0394620468F
:1028E00001F074F8174820F8147000BF00BFA10071
:1028F000491C4FF4807202EBC1004021FEF718FA28
:1029000000BFA100491C4FF4807202EBC100FEF72A
:102910008FF90028F5D10B4830F81400C01B094985
:1029200021F81400084630F8140030B10748005D63
:1029300040F001000549085502E000200349085510
:1029400038468CE6EC08002052000020560000209B
:1029500000B131B9054A064B5A61064B044A9361EE
:1029600002E0034A5061916170470000573C000843
:1029700060000020553C000800BF094A128802F49C
:102980000072002AF9D000B131B9064A044BDA616D
:10299000054B034A136202E0014AD061116270479D
:1029A00060000020033F0008093F000800BF094AFB
:1029B000128802F40072002AF9D000B129B9064B3E
:1029C000044A5362054B936202E0024A50629162EC
:1029D0007047000060000020013F0008073F00082A
:1029E0000020044908600A200349086000200349C8
:1029F00008707047B8000020BC000020B200002022
:102A00002DE9F0410446884615460026002700BF00
:102A1000082C02DD701EBDE8F08100BF00BFA100E0
:102A2000491C002202EBC100FEF702F900F00F0082
:102A3000012802D06FF00400EDE700BF00BF15B918
:102A40006FF00D00E7E700BFA100491C4FF4407292
:102A500002EBC100FEF7ECF80646172E04D01C2E40
:102A600002D06FF00600D6E70120A0404249098855
:102A7000084040B3A100491C4FF4007202EBC100B2
:102A8000FEF7D6F800F01F0606F0100080B1A10096
:102A9000491C4FF4007202EBC1001021FEF748F907
:102AA0000120A040344909888143334801800AE06D
:102AB00006F0080028B12046FEF79CFC6FF00C00E1
:102AC000A9E70020A7E7A100491C4FF4F85202EB48
:102AD000C100FEF7ADF84FF6FF7101EA8027BD4255
:102AE00000DD3D4623E02046FEF7C0FF0746A1007B
:102AF000491C4FF4407202EBC100FEF799F80646FC
:102B0000172E07D01C2E05D02046FEF773FC6FF061
:102B1000060080E70120A04018490988084018B144
:102B2000BD4201DD002076E7BD4200DC00E0DAE7CF
:102B300000BF2A464146204600F0A0FFA100491CE4
:102B40004FF4807202EBC1002021FEF7F1F800BFC4
:102B5000A100491C4FF4807202EBC100FEF768F837
:102B60000028F5D10120A040034909880843024903
:102B7000088028464FE70000540000205200002043
:102B80007CB50024FFF78AF80424002077490968FF
:102B90008872002175480068C17235222146641C84
:102BA00072480068EC30425401222146641C6F4890
:102BB0000068EC30425404222146641C6B480068D3
:102BC000EC3042543D222146641C68480068EC30D9
:102BD000425407222146641C64480068EC30425489
:102BE00001222146641C61480068EC304254604870
:102BF00002782146641C5D480068EC3042545C4811
:102C000042782146641C59480068EC3042545848C8
:102C100082782146641C55480068EC304254544880
:102C2000C2782146641C51480068EC304254504838
:102C300002792146641C4D480068EC3042544C48EF
:102C400042792146641C49480068EC3042543222E3
:102C50002146641C45480068EC304254042220465A
:102C6000611C8CB241490968EC310A544148027830
:102C70002046611C8CB23D490968EC310A543D483C
:102C800042782046611C8CB238490968EC310A54FC
:102C9000384882782046611C8CB234490968EC318E
:102CA0000A543448C2782046611C8CB22F49096806
:102CB000EC310A5436222046611C8CB22B4909683B
:102CC000EC310A5404222046611C8CB22749096861
:102CD000EC310A54284802782046611C8CB2234902
:102CE0000968EC310A54244842782046611C8CB2B1
:102CF0001E490968EC310A541F4882782046611C3D
:102D00008CB21A490968EC310A541B48C278204633
:102D1000611C8CB215490968EC310A54FF22204627
:102D2000611C8CB211490968EC310A54254605E052
:102D300000210E480068EC3041556D1CB5F59C7FB4
:102D4000F6DBFF208DF804008DF805008DF80600F5
:102D50008DF80700432001AB4FF40972009003483F
:102D600001680648007800F04BFB7CBDC4000020E1
:102D7000D0000020A1000020950000209400002039
:102D80007CB50024FEF78AFF00209D49087048703A
:102D90008870C8709B49087048708870C870042497
:102DA00035222146641C98480068EC3042540122C8
:102DB0002146641C94480068EC3042542146641C4F
:102DC00091480068EC3042543D222146641C8E48F4
:102DD0000068EC30425407222146641C8A4800688F
:102DE000EC30425401222146641C87480068EC30D4
:102DF0004254864802782146641C83480068EC30BF
:102E00004254824842782146641C7F480068EC3076
:102E100042547E4882782146641C7B480068EC302E
:102E200042547A48C2782146641C77480068EC30E6
:102E30004254764802792146641C73480068EC309D
:102E40004254724842792146641C6F480068EC3055
:102E500042540C222146641C6B480068EC304254FA
:102E600000222046611C8CB267490968EC310A5483
:102E700000250AE06648425D2046611C8CB262492A
:102E80000968EC310A54681C85B26148405D00282D
:102E9000F0D15E49C9780811FDF716FC2146621C85
:102EA00094B2594A1268EC3250545849C878FDF728
:102EB0000BFC2146621C94B2534A1268EC32505407
:102EC000524909790811FDF7FFFB2146621C94B2B3
:102ED0004D4A1268EC3250544C490879FDF7F4FB26
:102EE0002146621C94B2484A1268EC325054474959
:102EF00049790811FDF7E8FB2146621C94B2424A69
:102F00001268EC32505441494879FDF7DDFB214607
:102F1000621C94B23C4A1268EC325054A81DC1B2F3
:102F2000E81D221A38480068EC30815437222046C8
:102F3000611C8CB234490968EC310A5406222046DF
:102F4000611C8CB230490968EC310A5401222046D8
:102F5000611C8CB22C490968EC310A5403222046CA
:102F6000611C8CB228490968EC310A5406222046BB
:102F7000611C8CB224490968EC310A540F222046A6
:102F8000611C8CB220490968EC310A543A2220466F
:102F9000611C8CB21C490968EC310A543B22204662
:102FA000611C8CB218490968EC310A54FF22204692
:102FB000611C8CB214490968EC310A54254606E0BC
:102FC000002111480068EC304155681C85B2B5F508
:102FD0009C7FF5DBFF208DF804008DF805008DF84F
:102FE00006008DF80700432001AB4FF409720090F2
:102FF000054801680748007800F002FA7CBD00002F
:103000009500002099000020C4000020D00000207E
:10301000C8000020940000207CB50024FEF73EFE8E
:10302000F0480078032803D0EE48007804282CD11B
:103030000020ED49096888720021EB480068C172E0
:10304000EA480078E84909680873E8484178E648A2
:1030500000684173E5488178E34800688173E3487C
:10306000C178E1480068C173E14800788DF8040038
:10307000DF4840788DF80500DD4880788DF806003F
:10308000DB48C0788DF8070008E0FF208DF80400C9
:103090008DF805008DF806008DF807000424352210
:1030A0002146641CD0480068EC304254012221467D
:1030B000641CCD480068EC30425403222146641C55
:1030C000C9480068EC3042543D222146641CC64881
:1030D0000068EC30425407222146641CC248006854
:1030E000EC30425401222146641CBF480068EC3099
:1030F0004254C04802782146641CBB480068EC304A
:103100004254BC4842782146641CB7480068EC3001
:103110004254B84882782146641CB3480068EC30B9
:103120004254B448C2782146641CAF480068EC3071
:103130004254B04802792146641CAB480068EC3028
:103140004254AC4842792146641CA7480068EC30E0
:1031500042549DF80700FF2867D132222146601CA7
:1031600084B2A1480068EC30425404222146601C1D
:1031700084B29D480068EC3042549C480278204656
:10318000611C8CB298490968EC310A54974842781E
:103190002046611C8CB294490968EC310A5493486A
:1031A00082782046611C8CB28F490968EC310A5440
:1031B0008E48C2782046611C8CB28B490968EC317C
:1031C0000A5436222146601C84B287480068EC30DD
:1031D000425404222046611C8CB283490968EC31B8
:1031E0000A54834802782146601C84B27E480068F5
:1031F000EC3042547E4842782046611C8CB27A49B9
:103200000968EC310A547A4882782046611C8CB2F5
:1032100075490968EC310A547548C2782046611C2A
:103220008CB271490968EC310A540C222046611CA9
:103230008CB26D490968EC310A5400222046611CA9
:103240008CB269490968EC310A54002509E06A48E2
:10325000425D2046611C8CB263490968EC310A5416
:103260006D1C6548405D0028F1D16249C97808119C
:10327000FDF72AFA2146621C94B25B4A1268EC32CE
:1032800050545C49C878FDF71FFA2146621C94B27D
:10329000554A1268EC325054564909790811FDF725
:1032A00013FA2146621C94B24F4A1268EC32505411
:1032B00050490879FDF708FA2146621C94B24A4A3F
:1032C0001268EC3250544B4949790811FDF7FCF96A
:1032D0002146621C94B2444A1268EC32505445496B
:1032E0004879FDF7F1F92146621C94B23E4A126812
:1032F000EC325054A81DC1B2E81D221A3A480068A9
:10330000EC30815437222046611C8CB23649096862
:10331000EC310A5408222046611C8CB232490968FB
:10332000EC310A5401222046611C8CB22E490968F6
:10333000EC310A5403222046611C8CB22A490968E8
:10334000EC310A5406222046611C8CB226490968D9
:10335000EC310A540F222046611C8CB222490968C4
:10336000EC310A543A222046611C8CB21E4909688D
:10337000EC310A543B222046611C8CB21A49096880
:10338000EC310A541F222046611C8CB21649096890
:10339000EC310A5421222046611C8CB21249096882
:1033A000EC310A54FF222046611C8CB20E49096898
:1033B000EC310A54254605E000210B480068EC304A
:1033C00041556D1CB5F59C7FF6DB432001AB4FF4F6
:1033D00009720090044801680848007800F010F86D
:1033E0007CBD0000B1000020C4000020A10000202E
:1033F00095000020D0000020C8000020940000208C
:103400002DE9F05F04468B4615461E46DDF828A0E0
:103410000027B84600BF082C02DD781EBDE8F09FEB
:1034200000BFA100491C002202EBC100FDF700FC17
:1034300000F00F00022804D0032804D0042803D190
:1034400000E000BF00BF02E06FF00400E6E700BF4D
:1034500000BF15B96FF00D00E0E700BF96F80090CF
:10346000707869F31F208146B07869F31F20814688
:10347000F07869F31F208146B9F1000F0DD1A1004A
:10348000491C002202EBC100FDF7D2FB00F0040052
:10349000042802D06FF00B00C0E7BAF1000F0DD185
:1034A000A100491C002202EBC100FDF7C1FB00F0A6
:1034B0000400042802D06FF00A00AFE7A100491C05
:1034C0004FF4407202EBC100FDF7B2FB0746422FFA
:1034D00006D0222F04D0322F02D06FF006009DE7D5
:1034E000A100491C4FF4406202EBC10004223146A6
:1034F000FDF758FC4FEA2A21A200521C4FF48053DA
:1035000003EBC200FDF714FC0AF0FF01A200521CFD
:103510004FF4805303EBC20202F58070FDF708FC04
:10352000A100491C4FF4F85202EBC100FDF780FBEB
:103530004FF6FF7101EA8028454500DD45461CE055
:103540002046FEF793FA8046A100491C4FF44072D2
:1035500002EBC100FDF76CFB10B96FF003005DE7F3
:103560000120A04028490988084018B1454501DDDF
:10357000002053E7454500DC00E0E1E700BF2A46B4
:103580005946204600F07AFAA100491C4FF4807297
:1035900002EBC1002021FDF7CBFB00BFA100491CBD
:1035A0004FF4807202EBC100FDF742FB0028F5D119
:1035B00025E0A100491C4FF4007202EBC100FDF7A9
:1035C00037FB00F01F0707F0100048B1A100491CAD
:1035D0004FF4007202EBC1001021FDF7A9FB0FE0D0
:1035E00007F0080058B1A100491C4FF4007202EB2B
:1035F000C1000821FDF79CFB6FF00C000EE7D8E737
:1036000000BF28460AE7000052000020F8B5044633
:103610000E4617461D4600BF082C02DD4FF0FF3056
:10362000F8BD00BF012E06D0022E10D0032E10D000
:10363000042E0FD10CE0042269464FF47060FDF7B0
:1036400031FB009810B96FF00200E9E705E000BF18
:1036500000BF02E06FF00400E2E700BF05F00400E5
:1036600010B16FF00500DBE705B3012E02D0022E8A
:103670001AD106E005F0210010B96FF00500CFE780
:1036800013E005F0200028B105F0800010B96FF0BC
:103690000500C5E705F0100028B105F0800010B95D
:1036A0006FF00500BCE700E000BF00BF2046FDF75B
:1036B000A1FE05F0F00242EA0601A200521C00231E
:1036C00003EBC200FDF734FB7FB930480788008860
:1036D000401C2E490880084600884FF6F071884249
:1036E00003D14FF44040294908803912A200521CEE
:1036F0004FF4806303EBC200FDF71AFBF9B2A2009E
:10370000521C4FF4806303EBC20202F58070FDF798
:103710000FFBA100491C4FF4807202EBC100012194
:10372000FDF706FB00BFA100491C4FF4807202EBBD
:10373000C100FDF77DFA0028F5D10120A040144911
:10374000098881431248018005F00100A04010491A
:10375000098808430E4908800120A0400D490988C6
:1037600081430C48018000200B4921F814000B49CB
:10377000085500BFA100491C4FF4407202EBC10084
:10378000FDF756FA0028F5D060B249E75000002056
:103790005200002054000020EC08002056000020B9
:1037A000F0B587B005460E4601270024314628466D
:1037B000FCF740FD1FA0FDF739FB39E0FCF7AAFD3F
:1037C00028B1042805D10CB90124002701E0002705
:1037D00000BF00BF002F2BD10CB11AA000E01BA02E
:1037E00001461CA0FDF722FBFCF780FEF4B10DF1B1
:1037F0000A00FEF7E5F80DF11200FEF7D1F80DF121
:103800000E00FEF7EDF80DF11600FEF7B9F80220F4
:103810008DF81A00062201A94FF41060FDF742FA54
:1038200001A800F027FB012007B0F0BD0020FBE756
:10383000C4E70000444843502072756E6E696E679D
:103840000D0A000073756363657373006661696CCC
:103850000000000044484350202573210D0A000059
:1038600008B500BF4FF47A70FDF7F2FF69460F20EC
:10387000FDF7BEFE9DF80000012805D106A0FDF76A
:10388000D5FA00F017F802E006A0FDF7CFFA9DF890
:1038900000000028E6D008BD504859206C696E6BC6
:1038A0000D0A0000504859206E6F206C696E6B0D38
:1038B0000A00000010B54FF43850FDF7B9F904467E
:1038C00004F0020008B1642000E00A20014607A0CD
:1038D000FDF7ACFA04F0040008B10DA000E00FA061
:1038E000014611A0FDF7A2FA10BD00005468652042
:1038F00063757272656E74204D62746973207370A3
:10390000656564203A2025644D6270730D0A0000DD
:1039100046756C6C2D4475706C65780048616C66FA
:103920002D4475706C6578005468652063757272FB
:10393000656E74204475706C6578204D6F646520E9
:103940003A2025730D0A00002DE9F04704460F4682
:1039500016460025A8460EB9BDE8F087A100491C0F
:103960004FF4205202EBC10101F58070FDF760F9C0
:103970008146A100491C4FF4205202EBC100FDF723
:1039800057F909EB002085B22902A000C01C01EB09
:10399000C008324639464046FDF784F9A81985B279
:1039A0002912A200521C4FF4205303EBC200FDF772
:1039B000BFF9E9B2A200521C4FF4205303EBC2023C
:1039C00002F58070FDF7B4F900BFC5E72DE9F041BD
:1039D00004460E460025A100491C4FF4205202EB7C
:1039E000C10101F58070FDF723F90746A100491CCC
:1039F0004FF4205202EBC100FDF71AF907EB00204B
:103A000085B2A81985B22912A200521C4FF4205386
:103A100003EBC200FDF78CF9E9B2A200521C4FF48F
:103A2000205303EBC20202F58070FDF781F9BDE877
:103A3000F081000008B501210420FCF763FE082096
:103A4000ADF8000010208DF8030003208DF802006F
:103A500069460948FCF761FD08210748FCF7EAFDC3
:103A60000420ADF8000048208DF8030069460248A4
:103A7000FCF753FD08BD0000000801402DE9F047A8
:103A800004460F4616460025A8460EB9BDE8F08745
:103A9000A100491C4FF4105202EBC10101F58070E6
:103AA000FDF7C6F88146A100491C4FF4105202EB05
:103AB000C100FDF7BDF809EB002085B22902A00086
:103AC000801C01EBC008324639464046FDF76AF9D2
:103AD000A81985B22912A200521C4FF4105303EB0F
:103AE000C200FDF725F9E9B2A200521C4FF41053B1
:103AF00003EBC20202F58070FDF71AF900BFC5E7BB
:103B000000B587B001218803FCF7ECFD01210C20F2
:103B1000FCF7F8FD4FF46040ADF8180018208DF860
:103B20001B0003208DF81A0006A91948FCF7F5FCC4
:103B30000020ADF804004FF48270ADF806000020BC
:103B4000ADF80800ADF80A00ADF80C004FF40070B5
:103B5000ADF80E001020ADF810000020ADF81200F6
:103B600001A90C48FCF762FE01210A48FCF744FE5B
:103B700010208DF81B00ADF8180006A90648FCF7C8
:103B8000CCFC10210448FCF755FD07B000BD000037
:103B9000000C014000380040000801401FB5012121
:103BA0000846FCF79FFD40F2E730ADF808004720DB
:103BB000ADF804000020ADF80A00ADF8060001A938
:103BC0004FF08040FCF756FF01218807FCF726FFE5
:103BD000012211469007FCF744FF4FF4E060FCF728
:103BE00069FD1C208DF8000000208DF801000320E5
:103BF0008DF8020001208DF803006846FCF722FDD5
:103C000001218807FCF710FF1FBD014608787047A7
:103C10000170704770B50546ECB22E1204F0F00149
:103C20004FF4A850FDF784F800240EE00120A040D6
:103C3000304040B1A100491C4FF4007202EBC100BA
:103C40001F21FDF775F8601CC4B2082CEEDB70BDB7
:103C5000704770477047704710B510210148FCF756
:103C6000E9FC10BD0008014070B5002600240025C5
:103C70004FF4A850FCF7DCFF00F0F0064FF4B8500A
:103C8000FCF7D6FF0446254606EB052085B22846FC
:103C900070BD70B50026002400254FF4B050FCF72D
:103CA000C7FF06464FF4C050FCF7C2FF0446254646
:103CB00006EB052085B2284670BD000010B504460D
:103CC000062221464FF41060FCF7ECFF042204F1B9
:103CD0000E019001FCF7E6FF042204F10A014FF403
:103CE000A060FCF7DFFF0422A11D4FF47060FCF719
:103CF000D9FF07480078A07405484178E1748178BD
:103D00002175C178617503480078A07510BD000069
:103D10008C000020900000202DE9F04105460E4661
:103D2000002700F0F2F8F5B100BF00240AE0285D9A
:103D3000384447B2102F03DD4FF0FF30BDE8F0816B
:103D4000601C44B2082CF2DB00240AE0295DA200CA
:103D5000521C4FF4F85303EBC200FCF7E9FF601C60
:103D600044B2082CF2DBEEB10027002409E0305DFC
:103D7000384447B2102F02DD4FF0FF30DEE7601C01
:103D800044B2082CF3DB00240AE0315DA200521C8F
:103D90004FF4F05303EBC200FCF7CAFF601C44B2BF
:103DA000082CF2DB0020C9E710B500F08FF800F016
:103DB0002FF800F0E3F8FFF753FD10BD70B505468E
:103DC0000E46002400BF04E000F006F82855601CF1
:103DD00084B2B442F8DB70BD10B500BF02210B48BD
:103DE000FCF716FD0028F9D04FF6FF710748FCF7E5
:103DF0001BFD00BF01210548FCF70AFD0028F9D092
:103E00000248FCF70EFDC0B210BD000000380040B3
:103E100010B508210A48FCF70DFC0A20FDF718FD33
:103E200008210748FCF704FC0A20FDF711FD0821D2
:103E30000348FCF7FFFB0A20FDF70AFD10BD000058
:103E40000008014010B510210148FCF7F1FB10BD3E
:103E50000008014070B50446E5B2261229464FF429
:103E6000B050FCF765FF31464FF4C050FCF760FFDF
:103E700070BD000010B50446062221464FF41060C4
:103E8000FCF790FF042204F10E019001FCF78AFF79
:103E9000042204F10A014FF4A060FCF783FF04221E
:103EA000A11D4FF47060FCF77DFFA07C05490870F0
:103EB000E07C4870207D8870607DC870A07D0249DC
:103EC000087010BD8C0000209000002010B506493D
:103ED0000648FEF73DFD06490648FEF74DFD06493A
:103EE0000648FEF763FD10BD593C0008453E00083A
:103EF000ED3F0008D93D0008D13F0008BD3D000856
:103F00007047002070477047704700B585B00622A3
:103F100069464FF41060FCF7C5FE042204A9900125
:103F2000FCF7C0FE042203A94FF4A060FCF7BAFE20
:103F3000042202A94FF47060FCF7B4FE8021002037
:103F4000FCF7F6FE0020FCF773FE062269464FF4EC
:103F50001060FCF727FF042204A99001FCF722FF60
:103F6000042203A94FF4A060FCF71CFF042202A95D
:103F70004FF47060FCF716FF05B000BD38B50024A3
:103F80001CE04FF47A70FDF763FC4FF46450FCF7CB
:103F90004FFE042811D0601CC4B2052C0EDD4FF476
:103FA0006450FCF745FE054606A3042205A10090D7
:103FB0000648FCF73BFF00BFFEE700E0E1E700BF7B
:103FC00038BD0000573535303000000094420008FD
:103FD00070B505460E46002400BF04E0285D00F0E1
:103FE00005F8601C84B2B442F8DB70BD10B504461D
:103FF00000BF02210948FCF70BFC0028F9D021463C
:104000000648FCF711FC00BF01210448FCF700FC46
:104010000028F9D00148FCF704FC10BD003800402E
:1040200070B5044600254FF43850FCF701FE0546F4
:10403000C5F38010207005F03800202802D0382801
:1040400003D100BF0120607002E00020607000BF5B
:1040500000BF05F03800102805D0182802D020280D
:1040600004D100BF00BF0120A07002E00020A070BA
:1040700000BF00BF05F03800082805D0182802D07E
:10408000202804D100BF00BF0120E07002E0002022
:10409000E07000BF00BF70BD10B500244FF4385071
:1040A000FCF7C6FD00F0010000B10124204610BD60
:1040B00010B500244FF43850FCF7BAFD00F038007A
:1040C000302801D1012400E00024204610BD10B5A5
:1040D0004FF43850FCF7ACFD044624F08004214630
:1040E0004FF43850FCF724FE4FF43850FCF7A0FD95
:1040F000044644F0800421464FF43850FCF718FE83
:1041000010BD70B5054600242878012802D144F07E
:10411000400401E024F040046878012802D144F012
:10412000380412E0E878012808D1A878012802D1E3
:1041300044F0180409E044F0080406E0A8780128D7
:1041400002D144F0100400E000BF21464FF4385083
:10415000FCF7EEFDFFF7BBFF70BD70B50546002410
:104160004FF43850FCF764FD044604F0400010B9E9
:104170004FF0FF3070BD24F03804012D02D144F01F
:10418000300401E044F0380421464FF43850FCF785
:10419000CFFDFFF79CFF4FF43850FCF749FD044674
:1041A000012D04D104F0300030B10020E2E704F02A
:1041B000380008B10020DDE74FF0FF30DAE70000FB
:1041C0003D3D3D3D3D3D3D3D3D3D3D3D3D3D3D3D1F
:1041D0003D3D3D3D3D3D3D3D3D3D3D3D3D3D3D3D0F
:1041E0003D3D3D3D3D3D3D3D3D3D3D3D3D3D3D3DFF
:1041F0003D3D3D3D3D3D3D3D3D3D3D3D3D3D3D3DEF
:104200003D3D3D3D3D3D3D3D3D3D3D3D3D3D3D3DDE
:104210003D3D3D3D3D3D3D3D3D3D3D3D3D3D3D3DCE
:104220003D3D3D3D0D0A0D0A000000003D3D3D3D78
:104230003D3D3D3D3D3D3D3D3D3D3D3D3D3D3D3DAE
:104240003D3D3D3D3D3D3D3D3D3D3D3D3D3D3D3D9E
:104250003D3D3D3D3D3D3D3D3D3D3D3D3D3D3D3D8E
:104260003D3D3D3D3D3D3D3D3D3D3D3D3D3D3D3D7E
:104270003D3D3D3D3D3D3D3D3D3D3D3D3D3D3D3D6E
:104280003D3D3D3D3D3D3D3D3D3D3D3D3D3D3D3D5E
:104290000D0A00006572726F722C202573207665FE
:1042A0007273696F6E206973203078253032782CF4
:1042B00020627574207265616420257320766572B2
:1042C00073696F6E2076616C7565203D20307825AE
:1042D0003032780D0A000000F8420008000000208B
:1042E000EC0000004C0E0008E4430008EC00002045
:1042F000140E00005C0E00080008DC122212C0A898
:10430000011EFFFFFF00C0A801010808080801C046
:10431000A8010100F60100000000000000000000FC
:10432000000000000102030401020304060708095B
:104330000204060800A24A04000000000000000079
:10434000010203040607080900C000000000000085
:104350000000000000000000010257353530300039
:1043600000000000513C0008533C0008573C000886
:10437000553C00080B3C0008113C00080000000000
:10438000000000000000000000000000000000002D
:10439000000000000000000000000000000000001D
:1043A000000000000000000000000000FFFFFFFF11
:1043B000000000000A0000000000000000000000F3
:1043C00057495A6E657400000000000000000000AC
:1043D0008D170008E5170008C1170008010000004C
:0443E00000000000D9
:0400000508000131BD
:00000001FF
